:040FF800008007006E
:040FFC0000E007000A
:0200000270008C
:108000000000012079830700618307006383070074
:10801000658307006783070069830700000000008D
:1080200000000000000000000000000089D10700EF
:108030006D830700000000006F8307007183070055
:10804000738307007383070073830700738307003C
:10805000738307007383070073830700738307002C
:10806000738307007383070073830700738307001C
:10807000738307007383070073830700738307000C
:10808000ADB4070073830700738307007383070091
:10809000738307007383070085D30700738307008A
:1080A00073830700738307007383070073830700DC
:1080B00073830700738307000000000000000000C6
:1080C00073830700738307007383070073830700BC
:1080D0005DB1070073830700738307000000000091
:1080E0000000000000000000000000000000000090
:1080F0000000000000000000000000000000000080
:10810000000000000000000000000000000000006F
:10811000000000000000000000000000000000005F
:10812000000000000000000000000000000000004F
:10813000000000000000000000000000000000003F
:10814000000000000000000000000000000000002F
:10815000000000000000000000000000000000001F
:10816000000000000000000000000000000000000F
:1081700000000000000000000000000000000000FF
:1081800000000000000000000000000000000000EF
:1081900000000000000000000000000000000000DF
:1081A00000000000000000000000000000000000CF
:1081B00000000000000000000000000000000000BF
:1081C00000000000000000000000000000000000AF
:1081D000000000000000000000000000000000009F
:1081E000000000000000000000000000000000008F
:1081F000000000000000000000000000000000007F
:10820000364937480A1A02D0072291438D4635492C
:1082100035480A1A06D00722914381F309880222C1
:1082200082F3148831483249324A00F045F8324826
:108230003249334A00F040F832483349334A00F0BB
:108240003BF833483349344A00F036F83348344970
:10825000344A00F031F834483449354A00F02CF8FB
:1082600034483549354A00F027F835483549002269
:1082700000F02DF834483549002200F028F8344841
:108280003449091A082903DB002202600430016026
:10829000314A90471F482049884205D0026804307F
:1082A00003B4904703BCF7E700208646EC46002065
:1082B00000212A4A9047FEE7884207D0521A05D08B
:1082C000037801300B700131013AF9D170478842CF
:1082D00002D002700130FAE7704700000000012070
:1082E00000F800200000012000000120E0DB070072
:1082F000CC57002004580020D8830700D8830700FB
:10830000B0D60700E0DB0700CC570020CC57002098
:108310001CD707001CD707001CD707001CD7070075
:108320001CD707001CD707001CD707001CD7070065
:10833000E0DB070018DC0700045800200458002088
:1083400004580020B47D0020B47D0020B47D0020BE
:10835000B47D0020B47D0020A1830700499D070063
:10836000FEE7FEE7FEE7FEE7FEE7FEE7FEE7FEE7E5
:10837000FEE7FEE7704700BF1048804710484FF007
:108380000701884385460F4880470F48016841F43C
:1083900070010160BFF34F8FBFF36F8FFFF730BFE6
:1083A0000A480B490B4A884207D0521A05D0037875
:1083B00001300B700131013AF9D170477583070024
:1083C0000000012099B5070088ED00E008D70700FC
:0883D000B8570020CC57002033
:1083D80012F0030310B511D1094C22604C1CE400C3
:1083E800A4B22244074C2260074A1370074A13704C
:1083F800074A1080074A1846118010BD0720FCE77D
:108408000C58002008580020045800201458002058
:1084180010580020125800202DE9F3472B4D2B88C7
:108428008B4206460C4617464BD302A84FF000086D
:1084380000F8018D00F088F8254B264A1878117845
:10844800CBB2254909888B4238BF0133C0B238BF47
:108458005FFA83F840452ED092F800801378DBB29B
:10846800994286BF0133DBB2002313709DF80700E1
:1084780000F08EF84FF6FF73984524D0DFF860A01F
:10848800DAF800304FEAC80903EB090243F83870FC
:10849800A6B19CB1114B28881B68224608FB003006
:1084A800314605F075F8DAF800304B4400209C801E
:1084B80002B0BDE8F0874FF6FF78D7E7002090803C
:1084C800F6E70920F4E70420F2E700BF105800207F
:1084D8001458002004580020125800200858002082
:1084E8000C580020F8B5124C124D264622782B78ED
:1084F8009A4200D1F8BD23780F48104A07881268BD
:108508000F48DBB219B202EBC10C006852F83120F7
:10851800BCF8041003FB070090470A4A2378128826
:10852800DBB29A4286BF0133DBB200233370DDE74A
:108538001458002004580020105800200C5800201F
:10854800085800201258002070B5EFF3108672B654
:108558000C4A946801239CB993600B4B0B4DD3F8DC
:10856800801029401160C3F88050D3F884105160FE
:108578004FF0FF32C3F88420047006B962B670BDAC
:108588000370FAE71858002000E100E0FC06FFBD80
:10859800084B9A6810B55AB150B9EFF3108272B609
:1085A80005491C680C605C684C60986002B962B64A
:1085B80010BD00BF1858002000E100E030B53AB106
:1085C8001368DB430B4C0144884204D1D84330BDC7
:1085D8004FF0FF33F6E710F8012B5340082213F051
:1085E800010F14BF25460025013A85EA5303F6D149
:1085F800EAE700BF2083B8ED10B561B1B2FBF3F430
:1086080003FB1424A4B244B9C0E900148460828135
:10861800C381204610BD0E20FCE70920FAE782B08E
:1086280050E8022FC188B2EB324F4FF0000317BF5A
:1086380092B241EA014142EA014104E04268B2EBE8
:10864800324F08BF012340E80212002AE8D18DF812
:1086580007309DF80730002B0CBF1120002002B016
:10866800704737B550E8013F9DB2C48925448489D5
:10867800A54228BF2D1B0489A54202BFBFF32F8F37
:10868800002207E0C5EA030540E80154002CE9D1BF
:108698004FF001028DF803200193019B9DF8032000
:1086A8000B6002F0FF0322B10B880068184403B086
:1086B80030BD1846FBE70A884B889A4209D150E832
:1086C800012FC2EA024240E80123002BF7D1012022
:1086D80070470020704737B550E8023F1FFAA3F5EE
:1086E800C488A54202BFBFF32F8F00220DE0C489C2
:1086F80025448489A54228BF2D1BC3EA054540E8C7
:108708000254002CE8D14FF001028DF803200193A8
:10871800019B9DF803200B6002F0FF0322B14B88F8
:108728000068184403B030BD1846FBE70A884B8838
:108738009A4209D150E8022FC2EA224240E80223B5
:10874800002BF7D1012070470020704750E8002F18
:1087580042EA010340E8003C9CF0000FF6D11046C5
:10876800704750E8003F03EA010240E8002C9CF003
:10877800000FF6D1104670470121FFF7E7BF00212F
:10878800FFF7EFBF10B590B1D0E9012301689B1A3C
:10879800DBB20A60013BDBB2FF2B026802D100208A
:1087A800107110BD11684C1C14600B70F2E70E209C
:1087B800F7E737B5054602A8002400F8014DFFF792
:1087C800C3FE2A686B68116899420ED9481E10606A
:1087D80011F8014CEB68298A01FB0434AB68117964
:1087E8001B1ADBB2994238BF13719DF80700FFF7D7
:1087F800CFFE204603B030BD37B5054602A800239A
:1088080000F8013D0C46FFF79FFE2A681368591CC3
:108818001160E968641A298AB4FBF1F41C709DF8A8
:108828000700FFF7B5FE03B030BD01600B681146C5
:10883800184710B40468E468A4465DF8044B604720
:1088480010B404682469A4465DF8044B604700002E
:108858002DE9F04108B10368C3B90E4E0E4B14223E
:108868009B1B0024B3FBF2F3374602FB03F5A5423A
:1088780001D1002008E03B5930190BB91434F6E750
:10888800DB6998470028F9D0BDE8F081DB69BDE8CD
:10889800F0411847B8570020CC570020014B4360DF
:1088A800002070471CD70700084670470020704713
:1088B800024B1868003018BF012070472458002068
:1088C80008B50248FFF75BFF002008BD24580020C8
:1088D80008B510461A4604F05BFE002008BD0000EB
:1088E8002DE9F041804686B013480E4615461F46CE
:1088F800FFF742FF044630B1112018E006EB0430C0
:1089080001F09AF80134A542F8D10B48FFF737FF78
:10891800D8F8083000246BB1022268468DF8002090
:10892800CDE90146CDE9034505979847204606B0AD
:10893800BDE8F0811846FAE7245800202DE9F041F7
:10894800804686B012480F4616461D46FFF714FFAC
:108958000446D8B9AA083146384601F085F80C48CB
:10896800FFF70DFFD8F8083073B101228DF8002009
:108978000C9A05926846CDE90147CDE90365984709
:10898800204606B0BDE8F0811846FAE71120F8E75E
:108998002458002029DF704728DF704770B5036826
:1089A8009D6886B004460E466DB1142200216846C3
:1089B80004F017FEA3680593237901962BB1012BC8
:1089C8000DD06846A84706B070BD01238DF8003069
:1089D80023690293E368039363690493F1E702232D
:1089E8008DF80030E3681B030293F5E708467047EB
:1089F80000207047024B187A003018BF01207047DA
:108A0800145A0020034B187A0122B0FA80F05A74E5
:108A180040097047145A002008B510461A4604F059
:108A2800B7FD002008BD000008B514220021044845
:108A380004F0D7FD0348FFF7F2FD002008BD00BF92
:108A4800145A0020045A002010B5094C094B436001
:108A58002046FFF791FE48B904F076FC1C232074E9
:108A68004FF4EE7204490548FFF7C6FD002010BD1B
:108A7800145A002048D7070028580020045A00201C
:108A880070B5234D234E2B7A2C463BB922492348F7
:108A9800FFF721FE306008B9686070BD02232372B9
:108AA80033681A7972B1012A22D018460321FFF7D8
:108AB80075FF00232372636017491848BDE87040AA
:108AC800FFF734BED3E90520121A142A28BF14224E
:108AD800D3E903159208012A014438BF012228442A
:108AE800FFF758FF50B11128DFD101232372D4E7D3
:108AF800D3E903021044FFF74FFFF3E7237C002B71
:108B0800CBD10146BDE87040022000F009B800BF93
:108B1800145A00202C5A0020285A0020045A0020F9
:108B280038B5831E012B43D8224C237A002B3FD023
:108B3800022B09D103282ED01F4B1B680022E260AC
:108B48001A793AB1012A20D0637C6BBBBDE8384062
:108B5800FFF796BFD3E905128D1A142D94BF521949
:108B680014329A619142EFD102284FF0000308BFF6
:108B780019462372104B18BF0D211868FFF70EFF16
:108B88000E490F48FFF7D2FDDEE71A6901321A6174
:108B98005B699A42E7E7E3680133082B01D8E36091
:108BA800D2E70023E360DFE7BDE8384004F0BCBB50
:108BB80038BD00BF145A00202C5A0020285A002023
:108BC800045A002000F0FD03012B08D1044B0022B9
:108BD8005A74421E504250411874FFF751BF7047F3
:108BE800145A002010B5064C201DFFF7C5FD28B902
:108BF800637C1BB9BDE81040FFF742BF10BD00BF42
:108C0800145A00202DE9F34180460D460F4801A96A
:108C180016461F46FFF725FD0446A8B11C22002171
:108C280004F0DFFC2D0B0123237101A9C4F8008097
:108C3800A760E56066610548FFF73DFDFFF7D2FFD5
:108C4800002002B0BDE8F0810420FAE7045A0020B1
:108C58002DE9F74381468846104801A917461E4664
:108C6800FFF7FFFC0446B0B11C22002104F0B9FC58
:108C780000250A9BA36001A92571C4F80090C4E9E6
:108C8800037866610548FFF716FDFFF7ABFF284636
:108C980003B0BDE8F0830420FAE700BF045A0020BF
:108CA8000B684A684360934208BF0023016008BF0D
:108CB80043607047436843B10268916852680B4447
:108CC8009342436004BF0023436070472DE9F04F8F
:108CD8000022C9B04B780C781B0443EA0463CC78B3
:108CE80023438C7843EA042308AC0431A3500432AC
:108CF800402AEFD1234638AD996B1E464FEAF14220
:108D080082EA714282EA9122716A366853F8044F06
:108D180031440A444FEAB44181EAF41181EAD401AA
:108D28000A449D42DA63E7D1036D0093436D0193D2
:108D3800836D0293C36D0393036E0493436E05938F
:108D4800836E0693DDE905ECC36E009CDFF8AC90FA
:108D58000793DDE90381DDE901659B4600274FEABA
:108D6800F12383EAB11383EA716A59F827301A4666
:108D780008AB53F827301A44134653442CEA01022F
:108D880001EA0E0A82EA0A021A444FEA743A86EAAB
:108D980005035A448AEAB40A06EA050B234083EA23
:108DA8000B038AEAB45A01379A44402F02EB0803AE
:108DB800E3465244A8461AD1009F1744019A076512
:108DC80022444265029A32448265039A2A44C26563
:108DD800049A1A44059B02660B444366069B734437
:108DE8008366079B6344C36649B0BDE8F08FF446C9
:108DF80035468E46264619461446B0E774D707000E
:108E080030B5E0B10F4A104900240025C0E91245E9
:108E1800C0E914120D4C0E4A0E4DC0E916420E4A16
:108E2800C0E918520D4A826602F17452A2F5230273
:108E38000023A2F692420364C266184630BD0E2093
:108E4800FCE700BF85AE67BB67E6096A72F36E3C54
:108E58003AF54FA57F520E518C68059BABD9831FFD
:108E6800F8B50446F0B10AB90020F8BDD1B10D46F5
:108E78008E180027B542F7D0236C15F8012BE25461
:108E88000133402B2364F5D121462046FFF71EFF0E
:108E9800D4E9120110F5007241F10003C4E912236C
:108EA8002764E7E70E20E0E72DE978480D461646E7
:108EB8000446002800F08480002900F08180026CBC
:108EC8008021372A02F1010381544FF000024DD866
:108ED800382B46D1D4E91223206C0821E1FB00236A
:108EE80022FA01F1934684F83F2084F83E10110CD1
:108EF800120E84F83C201A0A9C4684F83B3084F809
:108F08003A201A0C1B0E84F83D10C4E912BC214605
:108F180084F8392084F838302046FFF7D7FE691ED8
:108F28007EB30023E26EDA4001F8012FA26EDA4028
:108F38000A71626EDA400A72226EDA400A73E26DD2
:108F4800DA400A74A26DDA400A75626DDA400A7670
:108F5800226DDA400833202B0A77E3D10020BDE8E0
:108F68007888E2540133B3E7E25401333F2BFBD94D
:108F780021462046FFF7AAFE3822002104F031FBE3
:108F8800A8E71823226DDA4001F8012F626DDA4054
:108F98000A71A26DDA400A72E26DDA400A73226E33
:108FA800DA400A74626EDA400A75A26EDA400A760E
:108FB800E26EDA40083B13F1080F0A77E2D1CDE7F9
:108FC8000E20CCE743689B68184708B5436808300B
:108FD8005A7900F066FE002008BD2DE9F0430D46E1
:108FE8009BB0084699469046FFF7ECFF6E68747987
:108FF8004C4528BF4C4607462246414602A800F089
:1090080045FE727922990AA800F04BFE00970AAB38
:10901800224602A905F1080001F018FD002848F2CF
:10902800425018BF00201BB0BDE8F0830023C0E900
:1090380002328B881A44B1F9063002611A44C0E939
:10904800001142610888003018BF0120704742684B
:10905800118838B50346002937D0148A02F1100167
:1090680041602CB9C2680168FFF7E0FF204638BDAF
:109078009078118900F03005302D14D1947C04F0DB
:109088003004302C0FD190881969091A1961002110
:10909800908AB2F9162008441969014419611144EB
:1090A80059610120E3E700F0F004202C07D1508932
:1090B8004143002DECD1986801309860E8E700F052
:1090C800C000802808BF0421F3E70846CFE770B541
:1090D800456804460E4663681A88B24204D19B78F4
:1090E80003F00F03082B07D12046FFF7B0FF636892
:1090F800AB42F0D1002070BD0120FCE743681A4460
:10910800426011B101399A4201D10120704713F828
:10911800010B01F8010FF6E7836810B504460BB997
:10912800002010BD0368012298470028F8D0A368E2
:10913800013BA360F5E72DE9F3410F460DF1070167
:109148008046FFF7E9FF064620B90026304602B000
:10915800BDE8F0819DF80740220613D504F07F048E
:1091680007250DF107014046FFF7D6FF0028ECD090
:109178009DF8072002F07F03AB401C43130605F15E
:10918800070501D43C60E1E7232DEAD1DDE770B59E
:109198004568AA7802F00F06082E86B003461FD14C
:1091A80003691C6800260CB906B070BD23686268A4
:1091B8009D68267329466846FFF738FF636804935D
:1091C80004F10C030593AB7803F0C003802B08BFB0
:1091D800231D684608BF0493FFF7D9FFA468E2E798
:1091E80012F0C0011CD102F0300010280AD15A69CF
:1091F8001170072EEC68186909D10146204600F065
:1092080017F8D1E79006F4D55B691980CCE72A896D
:10921800214614B104F0BCF9C6E704F0E2F9C3E74B
:109228008029C1D10069002192060160BCD5EBE715
:109238007FB50A4601466846FFF7F8FE30B1684632
:10924800FFF7A5FF6846FFF702FFF7E707B05DF8ED
:1092580004FB000030B5044685B01546A9B902687C
:10926800114B9A4211D0102D06D82A46694620463D
:10927800FFF7F0FF05B030BD102269462046FFF722
:10928800E9FF0028F6D0103DEDE7A368AB4201D214
:109298000020EFE723682A46204698470028F7D0A1
:1092A800A3685D1BA560E5E705910700F7B50E46C5
:1092B80001A907461546FFF73EFFA8B1019A012309
:1092C800D3184FF0000404D2B17801F0C00180290E
:1092D80001D1204608E031899942FAD32946384617
:1092E800FFF7B8FF019BEC5403B0F0BD73B50E4611
:1092F80001A905461446FFF71EFFB8B1019BB3F557
:10930800803F07D202229A1804D2B17801F0C00136
:10931800802901D1002009E031899142FAD3214600
:109328001A4621F8023B2846FFF794FF02B070BDA9
:1093380010B5034C82600022C0E90041C26010BD34
:10934800059107002DE9F04F824685B00D464FF094
:1093580000084FF0000900240DF10F015046FFF7F7
:10936800DBFEF8B19DF80F1001F07F025FFA82FB77
:109378004FF0000CCDE900BC009AA4F1200CC4F118
:10938800200322FA03F302FA0CF71F431346A34003
:1093980048EA03080B0649EA070904F1070404D45C
:1093A800C5E9008905B0BDE8F08F462CD4D100206E
:1093B800F8E773B50D4669461446FFF7C3FF68B171
:1093C8002B89082B0CD1DDE90056C4E90056DDE9EC
:1093D8000023B34206BFAA420120002002B070BD9C
:1093E800042B05D1DDE90001206005460026EEE7E3
:1093F800022B03D10098208085B2F7E7012B05D115
:10940800DDE90001207000F0FF05EFE70020E5E747
:1094180037B50D4669461446FFF794FF30B12A89DF
:10942800082ADDE9003103D1C4E9003103B030BDB9
:10943800042A18464FEAE37108D123601A460B46FE
:109448008B4206BF824201200020EFE7022A04D1A6
:109458001BB223801AB2D317F2E7012A03D15BB2F9
:1094680023705AB2F7E70020E0E7F7B50C46002171
:1094780019702170116001A9074615461E46FFF7AD
:109488005AFE30B9BB6813B901233370002003B00A
:10949800F0BD01990029F7D0CB0801F007012B6036
:1094A8002170F4E713B5044605291FD8DFE801F059
:1094B800030F151E1E1C012201A92046FFF7CAFE34
:1094C80018B19DF90430002BF5DB02B010BD08225D
:1094D80000212046FFF7BEFEF7E701A9FFF72BFEA4
:1094E8000028F2D0019AF3E70422F1E70020ECE724
:1094F80073B50D4601A90446FFF71DFE064618B9C7
:109508000026304602B070BD94E80F0085E80F00D1
:1095180001998A42F4D3A960A3685B1AA360F0E7B3
:109528002DE9F0415468A37813F0C00E88B00646C0
:109538008C46154604D0BEF1400F68D0002444E0A4
:1095480003F00F025C4903F03003102B51F822702E
:109558001DD006D8002BF1D12A692146B847044608
:1095680033E0202B17D0302BE8D16B692188198084
:10957800072A09D171462289286904F032F86B68F4
:109588002969D868FFF754FE2A6969683DE06B6964
:1095980001221A70E0E7BCF1020FD5F8148027D138
:1095A800042A25D804A9FFF7A3FF04460028C5D03C
:1095B800069B2BB16968B8F800304A899A4208D8E6
:1095C800059B7360069B002BB8D1204608B0BDE808
:1095D800F08108892A6903FB002204A8B84728B14A
:1095E800B8F800300133A8F80030E1E70446E7E7AF
:1095F800B8F800302969228903FB0212618999426F
:109608009CD90133A8F8003021463046A6E71769EF
:109618003B6807F1040813B9FFF744FF9FE70229E5
:1096280013D104A9FFF764FF002887D03B68696855
:10963800424604A89847044600283FF47FAF069B9B
:10964800002BF3D1059B7360BFE701292BD009D309
:1096580005297FF473AF04220DEB0201FFF7FAFD31
:10966800042425E0002401AB191901340B2C3FF424
:1096780065AF01223046FFF7EDFD00283FF45EAFED
:1096880001AB234413F9013C002BECDB0B4B049397
:1096980001ABCDE905340023079342463B6869686E
:1096A80004A898475BE7082201A9FFF7D3FD08241F
:1096B8000028EBD142E700BF80D8070005910700DA
:1096C8002DE9F04F91B00446002604A8CDE90266C2
:1096D800FFF7ACFCA3683BBBDDE9053404A89D7823
:1096E800FFF7B5FC0028F7D115F0300F03D1059B23
:1096F8001B8803B10134002C00F0A9806309002203
:1097080002A9934240F09C8010AA02EB830304F064
:109718001F04C4F120044FF0FF3053F8383CE040F8
:10972800C31A584258410DE00DF1030301AA0DF187
:1097380002012046FFF799FE38B99DF80330002B47
:10974800CAD1002011B0BDE8F08F019904A8FFF735
:10975800BEFC002850D1019BB3427FD3059D059ADA
:10976800937803F00F03082B73D004A8FFF76FFC5E
:10977800059B9D42F3D14FF0FF36019FB7426DD351
:10978800089B9DF80290D4F808801D684FF0010AE4
:10979800A368002D5FD098459CD12B68D3F800B002
:1097A800BBF1000F08D04B463A4629462046D84719
:1097B8000028C6D0AD68EBE7D3F808B0BBF8003096
:1097C8009F42F7D16A6859460AA8FFF72FFC6B68D1
:1097D8000E9305F10C030F939BF8023003F0C003BE
:1097E800802B04BF2B1D0E930AAA85F80CA04946AE
:1097F8002046FFF795FEDBE7059B9B7813F0300FBB
:109808000FD1069A3F2A0CD8510910AB03EB8101FE
:1098180002F01F020123934051F8382C134341F8FA
:10982800383CE5689DF802201DB104AB019920463B
:10983800A84704AA9DF802102046FFF771FE12E01F
:1098480051F8225001357FF47DAF013259E70120EC
:1098580078E7168891E798457FF43CAF9DF80210A9
:109868002046FFF71FFE00287FF434AF69E770B584
:109878000C460646154611462046FFF7D9FC2A46EF
:1098880021463046BDE87040FFF71ABFF0B585B0F5
:109898000C46CD68694607461646FFF729FE68B1AB
:1098A800E06858B1A37803F03003202B32462946EC
:1098B800684605D1FFF7DBFF019B7B6005B0F0BD73
:1098C800FFF7FEFEF8E72DE977480E466946FFF7F1
:1098D80039FD88B1DDE90023002502F001045FEAC3
:1098E800530C4FEA320B54EA050308D06FEA0B0217
:1098F8006FEA0C03C6E9002303B0BDE87088C6E927
:1099080000BCF9E737B50D4669461446FFF7DBFF9B
:1099180068B12B89082B0CD1DDE90001C4E90001ED
:10992800DDE900238B4206BF82420120002003B0FC
:1099380030BD042B03D100982060C117F0E7022B3B
:1099480004D1BDF90000208000B2F6E7012B04D154
:109958009DF90000207040B2EFE70020E7E713B55B
:1099680004220C460DEB0201FFF774FC08B1019BC1
:10997800236002B010BD1146FFF7F1BF13B50822EE
:109988000C466946FFF766FC18B1DDE90023C4E917
:10999800002302B010BD1146FFF7F0BF044B1A5C5C
:1099A800012393404FF0A042C2F80C35704700BF26
:1099B800A4D80700044B1A5C012393404FF0A0423F
:1099C800C2F80835704700BFA4D8070008B50020C2
:1099D800FFF7F0FF0120FFF7EDFF0220FFF7EAFF96
:1099E8000320BDE80840FFF7E5BFC20708B50146F8
:1099F8000CD54FF0A0430322C3F84427C3F84827E7
:109A0800C3F84C27C3F85027FFF7E0FF8B070AD5A8
:109A18004FF0A0430C22C3F83427C3F83827C3F803
:109A28003C27C3F8402708BD024AD2F80034002B6F
:109A3800FBD0704700E001400A4908B50223C1F88D
:109A48000435BFF36F8FBFF34F8FC1F80805FFF7D9
:109A5800EBFF0023C1F80435BFF36F8FBFF34F8FBF
:109A680008BD00BF00E001400E4B10B50124C3F84B
:109A78000445BFF36F8FBFF34F8F01EB8204401A89
:109A8800A14208D1074B0022C3F80425BFF36F8F0A
:109A9800BFF34F8F10BD431851F8042B1A60FFF71E
:109AA800C3FFEDE700E0014028B139B10023C1E967
:109AB80000301846704748F21050704748F213506B
:109AC800704730B1036848F240508B4208BF00200D
:109AD800704748F21050704728B148F2115091422F
:109AE80008BF0020704748F21050704770B506460E
:109AF8000C461D46FFF7D8FF50B9B3794AB1AB42BF
:109B08000AD111462046FFF760FA08B9044B2360D2
:109B180070BD48F21050FBE748F21150F8E700BF5B
:109B28007052464D2DE9F0470C4607460F4920462E
:109B380015469846DDE90869FFF7C3FF98B96368D9
:109B48005A79494652003046FFF7C6FF58B945B121
:109B5800089643462A4621463846BDE8F047FFF7AF
:109B68003CBA48F21050BDE8F08700BF7052464D2D
:109B780010B5044638B149B141600B68984708B937
:109B8800044B236010BD48F20150FBE748F2105027
:109B9800F8E700BF6E524648F0B448B107680A4E6D
:109BA800B74209D159B16AB14368F0BC5B6818473C
:109BB80048F20150F0BC704748F20250FAE748F208
:109BC8001050F7E71046F5E76E524648F0B460B11A
:109BD80007680C4EB7420CD171B143681568DC6850
:109BE800A5420CD39B68F0BC184748F20150F0BC62
:109BF800704748F20250FAE748F21350F7E748F284
:109C08001450F4E76E5246482DE9F04104461746D1
:109C18009846DDE90656FFF7ABFF60B9424639467C
:109C28002046FFF7B9FF30B9324629462046BDE83D
:109C3800F041FFF7CBBFBDE8F0810000F8B50A4F4F
:109C48000A4C0B4DE41B0121E40829700026A642AA
:109C580003D102232B700020F8BD57F836309847FF
:109C68000028F9D10136F2E7B0D60700B0D60700D0
:109C7800305A002001390144884200D970470378DE
:109C88000A7800F8012B01F80139F5E7013A024496
:109C98000139824200D2704711F8013F02F80139B8
:109CA800F7E770B516460D46FFF7F0FF3246A919DB
:109CB8003044BDE87040FFF7E9BF38B50D460446AB
:109CC800FFF7D8FF29466019BDE83840FFF7D2BF33
:109CD800BFF34F8F0549064BCA6802F4E06213438D
:109CE800CB60BFF34F8F00BFFDE700BF00ED00E082
:109CF8000400FA0508B507281BD8DFE800F00412AD
:109D08001A1A1A041A040120FFF76FFE0020FFF741
:109D180045FE0120FFF742FE0220BDE80840FFF79C
:109D280049BE0120FFF746FE0220BDE80840FFF7C4
:109D380035BE08BD08B5FFF7CBFF08B5FFF7C8FF6C
:109D48000022104610B54FF4805101F019F902466F
:109D580008B1FFF7BDFF0848C0F5FC2101F010F974
:109D68000028F6D1054801F033F804460028F0D160
:109D780001F0F4F8204610BD00800700FD9C0700A4
:109D88008B1802448B4200D1704713F8010D02F87A
:109D9800010DF7E700000000C3F10803DB0070B510
:109DA8000133002403A500BF5B1920C940CAAD19BF
:109DB80020C0184720C940CA754120C020C940CAE0
:109DC800754120C020C940CA754120C020C940CA79
:109DD800754120C020C940CA754120C020C940CA69
:109DE800754120C020C940CA754120C06441204641
:109DF80070BD00BF00000000C3F10803DB0070B5B0
:109E08000133002403A500BF5B1920C940CAAD1B5C
:109E180020C0184720C940CAB54120C020C940CA3F
:109E2800B54120C020C940CAB54120C020C940CA98
:109E3800B54120C020C940CAB54120C020C940CA88
:109E4800B54120C020C940CAB54120C06441B4FA18
:109E580084F0400970BD00BF2DE9F04F08B4F8CA7E
:109E680004B451F8042BA3FB028940F8048B4FF08B
:109E7800000AE4FB629A4FF0000BE5FB62AB4FF07F
:109E8800000CE6FB62BC4FF0000EE7FB62CE51F817
:109E9800042B4FF00008E3FB628940F8048BE4FBD5
:109EA800629AE5FB62ABE6FB62BCE7FB62CE51F867
:109EB800042B4FF00008E3FB628940F8048BE4FBB5
:109EC800629AE5FB62ABE6FB62BCE7FB62CE51F847
:109ED800042B4FF00008E3FB628940F8048BE4FB95
:109EE800629AE5FB62ABE6FB62BCE7FB62CE51F827
:109EF800042B4FF00008E3FB628940F8048BE4FB75
:109F0800629AE5FB62ABE6FB62BCE7FB62CE40F817
:109F1800049B40F804AB40F804BB40F804CB40F87D
:109F280004EB0CBC052B00F01E810C68A0F114009A
:109F3800A1F11401A2F1140252F804EB4FF000054C
:109F480050F8046BE4FB6E5652F804EB50F8047BAF
:109F5800E4FB6E6752F804EB50F8048BE4FB6E7870
:109F680052F804EB50F8049BE4FB6E8952F804EBBA
:109F780050F804ABE4FB6E9AA0F1140052F8044BBD
:109F880051F804EB4FF0000CE4FB6EC540F804CB2D
:109F980051F804EBE4FB6E5640F8045B51F804EB0F
:109FA800E4FB6E6740F8046B51F804EBE4FB6E7851
:109FB80040F8047B51F804EBE4FB6E8940F8048B0D
:109FC80051F804EBE4FB6E9AA0E80006062B00F0BB
:109FD800CA800C68A0F11800A1F11801A2F11802BA
:109FE80052F804EB4FF0000550F8046BE4FB6E5692
:109FF80052F804EB50F8047BE4FB6E6752F804EB6C
:10A0080050F8048BE4FB6E7852F804EB50F8049B8C
:10A01800E4FB6E8952F804EB50F804ABE4FB6E9A4B
:10A0280052F804EB50F804BBE4FB6EABA0F1180047
:10A0380052F8044B51F804EB4FF0000CE4FB6EC5EA
:10A0480040F804CB51F804EBE4FB6E5640F8045B8F
:10A0580051F804EBE4FB6E6740F8046B51F804EB2D
:10A06800E4FB6E7840F8047B51F804EBE4FB6E895E
:10A0780040F8048B51F804EBE4FB6E9A40F8049B1B
:10A0880051F804EBE4FB6EABA0E8000C072B6AD098
:10A0980008B40C68A0F11C00A1F11C01A2F11C027B
:10A0A80052F804EB4FF0000550F8046BE4FB6E56D1
:10A0B80052F804EB50F8047BE4FB6E6752F804EBAB
:10A0C80050F8048BE4FB6E7852F804EB50F8049BCC
:10A0D800E4FB6E8952F804EB50F804ABE4FB6E9A8B
:10A0E80052F804EB50F804BBE4FB6EAB52F804EBF7
:10A0F80050F804CBE4FB6EBCA0F11C0052F8044BF2
:10A1080051F804EB4FF00003E4FB6E3540F8043BD4
:10A1180051F804EBE4FB6E5640F8045B51F804EB8D
:10A12800E4FB6E6740F8046B51F804EBE4FB6E78CF
:10A1380040F8047B51F804EBE4FB6E8940F8048B8B
:10A1480051F804EBE4FB6E9A40F8049B51F804EBD9
:10A15800E4FB6EAB40F804AB51F804EBE4FB6EBCD7
:10A16800A0E8001808BCBDE8F08F002310B51C4615
:10A178005AB2914200DC10BD40F823400133F7E7A2
:10A1880010B500231A465CB2A14203DCB2FA82F091
:10A19800400910BD50F8234001332243F3E74A1128
:10A1A800012350F8220001F01F0103FA01F10840D1
:10A1B8007047013949B2002904DA013149B231B98D
:10A1C8000846704750F82130002BF2D0F5E701F12E
:10A1D8008043013B50F82330002023B9013900EBBC
:10A1E800411108B270475B080130F6E710B500234B
:10A1F8005CB2A24200DC10BD51F8234040F8234075
:10A208000133F5E710B5013A52B2002A01DA00200D
:10A2180010BD13B250F8234051F823309C4203D8A4
:10A22800F1D24FF0FF3010BD012010BD00EB8101CD
:10A238000023884200D3704751F8042C43EA5203A4
:10A2480041F8043DD307F4E770B59DF910401E4668
:10A2580023460546FFF7A0FD30B922462946304679
:10A26800FFF7D0FF012807D0234632462946284663
:10A27800BDE87040FFF7C0BD70BD70B59DF91040D6
:10A288001E4623460546FFF7B7FD38B1234632463A
:10A2980029462846BDE87040FFF77EBD70BD2DE910
:10A2A800F04FB5B004AD9DF9F8401F4680462346EF
:10A2B8002846FFF7D1FD24AB214638460293039583
:10A2C800FFF777FFC0EB841005B26B4203F01F0362
:10A2D8004FF0200695FBF6F676B205F01F0914A894
:10A2E80058BFC3F100093146FFF73FFFB9F1000F2E
:10A2F80030B22BDD14AB002203EB8000C9F1200E35
:10A308001346A34217D327B27B00019314AB03EB88
:10A31800870704F1FF3934AB012603EB8909002DC7
:10A3280055DB34AB0022C6F10100964603EB860AE2
:10A3380003EB80002DE057F8236006FA09F10A4381
:10A3480040F8232026FA0EF20133DAE714AB22464E
:10A35800394603EB8000FFF749FFD4E70FFA81FC89
:10A368005AF8C83C53F82CB034AB03EB810151F8D0
:10A37800803CABEB0303A3EB0E039B4504D034BF37
:10A388004FF0010E4FF0000E50F8C81C41F82C3069
:10A398000132019B51B29942E0DBA6EB0E035E420B
:10A3A800214614A85E41FFF741FF34AB03EB840359
:10A3B800214653F8802C59F8803C384643EAC2734A
:10A3C800013D49F8803C2DB2FFF730FFA7E734ABD9
:10A3D80003EB8606224656F8C81C4046FFF706FFE0
:10A3E80035B0BDE8F08F30B51C4691B0054693F9FD
:10A3F80000306846FFF730FDD4F8AC30694628468F
:10A40800984711B030BD13460A46FFF7ECBF2DE957
:10A41800F04793F9006092B00446894610463146E9
:10A4280015469846FFF7ACFE002840F09380424658
:10A43800494602A8FFF7E7FF434602AA21460AA8B1
:10A44800FFF7D1FF02A908464246FFF7DCFF434663
:10A458002A4649464846FFF7C6FF08F10407424620
:10A4680029462846FFF7CFFF3B462A462146204685
:10A478000096FFF7E9FE3B462A46294628460096FD
:10A48800FFF7E2FE3B462A46214628460096FFF79C
:10A49800F4FE43462A4621462046FFF7A4FF3B46E2
:10A4A8002246214628460096FFF7CEFE3B460096F8
:10A4B8002A4621462046FFF7C7FE2368DB074CD50E
:10A4C80033463A4621462046FFF766FC3146824627
:10A4D8002046FFF7ABFE06F18043013B54F823000A
:10A4E80040EACA7044F82300424621462846FFF74E
:10A4F8008AFF3B460AAA294628460096FFF7BDFE72
:10A508003B460AAA294628460096FFF7B6FE0AA93E
:10A5180008463B462A460096FFF7AFFE43460AAA7E
:10A5280021462046FFF75FFF02AA3B461046214618
:10A538000096FFF7A2FE324629462046FFF756FE50
:10A54800324649462846FFF751FE324602A9484698
:10A55800FFF74CFE12B0BDE8F08731462046FFF702
:10A5680065FEC1E72DE9F04115468AB004468846E4
:10A578002022002102A803F034F82E1D95F900705E
:10A5880003232A46414620460293FFF73CFF334601
:10A5980002AA214620460097FFF76FFE2B46424647
:10A5A80021462046FFF71FFF0097334605F1840236
:10A5B80021462046FFF748FE0AB0BDE8F0810000BA
:10A5C800F0B5082289B00C460646FFF70FFECB6AA5
:10A5D80003930B6B04934B6B05938B6B0693CB6BBD
:10A5E8000793002708236A46694668460297019739
:10A5F8000097FFF7D1FB082305466A4631463046E7
:10A60800FFF7CAFB236B0393636B0493A36B059358
:10A61800E36B0693054408236A466946684607972C
:10A62800FFF7BAFB082305446A4631463046FFF770
:10A63800B3FB236A0093636A0193A36A0293A36B33
:10A648000693E36B0793054408236A463146304670
:10A65800059704970397FFF79FFB636A0093A36A24
:10A668000193E36AA26B0293636B039304920693CC
:10A67800E26B236A0592054407936A46082331462C
:10A688003046FFF789FBE36A0093236B0193636B02
:10A698000293236A0693A36A0793054408236A462C
:10A6A80031463046059704970397FFF7A5FB236BC0
:10A6B8000093636B0193A36B0293E36B0393636A49
:10A6C8000693E36A07932D1A08236A4631463046F3
:10A6D80005970497FFF790FB636B0093A36B0193B7
:10A6E800E36B0293236A0393636A0493A36A059353
:10A6F800236B07932D1A08236A463146304606977E
:10A70800FFF77AFBA36B0093E36B0193636A0393F0
:10A71800A36A0493E36A0593636B07932D1A0823CE
:10A728006A463146304602970697FFF765FB2D1AB1
:10A738000D4C0FD435B9082231462046FFF762FD8B
:10A7480001280FD00823224631463046FFF754FB34
:10A758002D1AEFE70823224631463046FFF71CFB47
:10A768002D18F7D409B0F0BDECD80700F0B51546A0
:10A7780089B01C4607460E461A4629466846FFF722
:10A7880042FE23466A4639463846FFF72CFE2346E2
:10A798002A4669466846FFF726FE23466A4631463A
:10A7A8003046FFF720FE09B0F0BD2DE9F0438BB02D
:10A7B8001446129D15F9046B00961F46804689467B
:10A7C8002B460246214602A8FFF757FD02A9129A16
:10A7D8000846FFF718FE129B02AA41464046FFF7BB
:10A7E80002FE129B02AA21462046FFF7FCFD2B46DB
:10A7F8004A46394638460096FFF73FFD129A3946D1
:10A8080002A8FFF700FE02A92B464246084600961A
:10A81800FFF733FD02A92B46224608460096FFF7AC
:10A828002CFD2B464246214620460096FFF725FD83
:10A83800129B224649464846FFF7D5FD2B4602AAF9
:10A84800414620460096FFF718FD129B22463946DE
:10A858003846FFF7C8FD2B464A4639463846009623
:10A86800FFF70BFD324602A92046FFF7BFFC0BB0ED
:10A87800BDE8F0832DE9F047B3F9024088461E464B
:10A8880004F11F012023073491FBF3F708234FFA43
:10A8980087F994FBF3F4944228BF144649460546C9
:10A8A800FFF763FC22464146FFF76AFAB6F9023021
:10A8B800E4009C4221D9E41A05EB87010022C4F187
:10A8C80020078D420FD324364A4629463046FFF7E3
:10A8D80099FC012811D04B46324629462846BDE846
:10A8E800F047FFF789BA51F8040C20FA04F3134330
:10A8F80041F8043D00FA07F2E3E7BDE8F08770B5D8
:10A90800036813F001050646144605D013460A46A7
:10A918000146FFF741FA054621463046FFF786FC17
:10A9280045B104F18042013A56F8223043F0004321
:10A9380046F8223070BDF0B50F46A1B0064619465C
:10A94800384615461C46FFF71BFC28B12146304601
:10A95800FFF70BFC21B0F0BD224639466846FFF7E9
:10A9680045FC2246294608A8FFF740FC214610A8C6
:10A97800FFF7FBFB0123214618A81093FFF7F5FB0F
:10A98800224608A96846FFF73DFC28B9224610A9C7
:10A998003046FFF72BFCDDE7009BDA0709D4214698
:10A9A8006846FFF743FC2246294610A8FFF7A7FF91
:10A9B800E6E7089BDB0707D4214608A8FFF736FC23
:10A9C8002246294618A8F1E7002823461CDD08AAD4
:10A9D80069466846FFF710FA21466846FFF726FCE5
:10A9E800224618A910A8FFF70DFC002805DA10A9BF
:10A9F80023462A460846FFF7CFF910A9234618AA86
:10AA08000846FFF7F9F9CEE708A96A460846FFF7AE
:10AA1800F3F9214608A8FFF709FC224610A918A84F
:10AA2800FFF7F0FB002805DA18A923462A4608464E
:10AA3800FFF7B2F918A9234610AA0846FFF7DCF970
:10AA4800BEE7000000487047E8D807002DE9F04F3E
:10AA5800EDB01F46DDF8D8810590B8F9026098F985
:10AA6800004020231F3696FBF3F676B206F1FF3935
:10AA780024AB002543F829506CAB03EB89034CA8A1
:10AA88008A469346394698F9012043F8805C43F892
:10AA9800605CFFF775F998F9012054A8B918FFF719
:10AAA8006FF921464CA8FFF76BFB0746002840F0DA
:10AAB8003981214654A8FFF763FB0290002840F033
:10AAC800338108F1240332464CA918460393FFF753
:10AAD80099FB012840F02A81324654A90398FFF7D0
:10AAE80091FB0128069040F021811CAD0CAF334644
:10AAF800039A54A92846FFF71EFF029B47F82930FE
:10AB08005A46514638464346FFF7B4FE394638465A
:10AB1800039B00962A46FFF7C2FB0DF5B879039B05
:10AB280000962A464CA914A8FFF7B9FB48462246C6
:10AB38000599FFF75BFBA30009EB030A0793059B45
:10AB4800A100591808F1440B50462246FFF74EFB66
:10AB58005946224634A8FFF749FBA3000BEB030133
:10AB680022463CA8FFF742FB08F10403494634AAF1
:10AB7800284600940493FFF780FB53464A463CA9B5
:10AB880034A8CDF80080FFF710FE2346049A294622
:10AB98002846FFF7D0FE2A46514648464346FFF767
:10ABA800E5FD029B08933146059B0A933846CDF88C
:10ABB80024B0CDF82C90FFF7FCFA3146814614A852
:10ABC800FFF7F7FA8145B8BF81461FFA89F909F1FD
:10ABD800FF3B0FFA8BFB59463846FFF7E0FA594618
:10ABE800071C14A818BF0127FFF7D9FA002814BFBB
:10ABF800022300231F430DF1200A22465AF827702A
:10AC080024A83946FFF7F2FA0DF1B00BA300F918A2
:10AC180022465846FFF7EAFA21462846FFF7A5FAE2
:10AC2800A9F10209069B2B600FFA89F90DF1900A28
:10AC3800B9F1000F23DA2346049A29462846FFF77C
:10AC48007AFE43462A4659465046FFF78FFD32465C
:10AC580051460398FFF7D6FA012805D03346039AE0
:10AC680051465046FFF7C8F8013C64B2002C4CDA54
:10AC7800029BB3FA83F040096DB0BDE8F08F4346FC
:10AC88002A46D8F8A47059465046B84749460CA8F1
:10AC9800FFF785FA4946071C14A818BF0127FFF7D4
:10ACA8007EFA002814BF02200020384308AB53F86E
:10ACB80020702FB32246394634A8FFF797FA079B2E
:10ACC8002246F9183CA8FFF791FA43462A463CA9C0
:10ACD80034A8FFF74BFD049B009434AA514644A8BE
:10ACE800FFF7CBFA5B4652463CA934A8CDF8008062
:10ACF800FFF75BFD434644AA29462846FFF773FB46
:10AD080009F1FF390FFA89F992E723B26CAA02EB2D
:10AD180083025AF8233052F8802C5340029A1A437F
:10AD28000292A1E72846A7E73846A5E70298A3E7D5
:10AD3800007800F00100704741DF7047014B0122A5
:10AD48001A707047545E0020BFF34F8F0549064BB9
:10AD5800CA6802F4E0621343CB60BFF34F8F00BFB1
:10AD6800FDE700BF00ED00E00400FA05024B0348D0
:10AD780000221A7001F0BABB545E002051AD0700E2
:10AD8800C31E10B50446042B09D8DFE803F00303FB
:10AD9800080F0F0009494FF4701000F039FA084BFA
:10ADA8001B6853B12046BDE810401847054B0648BC
:10ADB80000221A7001F09AFBF1E710BD75AD07008B
:10ADC800585E0020545E002051AD070000207047F7
:10ADD80038B5554B554A18604FF0A0430020C3F8CA
:10ADE800402701F099FB054640B900F0E9FA01282F
:10ADF80000F0918004D3022800F09380032038BD2E
:10AE08004FF08042D2F8004414F4803435D04FF427
:10AE18008033C2F800342C46454D2B6A012B3FD0B5
:10AE28004FF4701400F04AFB424A20211820FDF725
:10AE3800CFFA08B1FEF781FF3F4B1A6802F0F8021B
:10AE4800B02A06D11A68D20742BF1A6802F04E0229
:10AE58001A60FFF7BBFF0028D0D12046374900F021
:10AE6800D7F9374800F0EAFC0028C7D100F04CFBBE
:10AE7800FDF738FBFFF760FFF8E7D2F8203503F05D
:10AE8800F803A82B0AD1D2F82035D80706D5D2F86E
:10AE9800203503F05603C2F82035BDE70124BBE78F
:10AEA80043F204031A68274B9A420AD001F060FC67
:10AEB8000146A4B1AA69244801F046FF0028AFD092
:10AEC80011E01CB995F86032012BEFD06A6B1F486E
:10AED8004FF4805101F038FF0028A1D0E6E795F83B
:10AEE800A132012BE6D14FF0A043D3F81035D90396
:10AEF80096D5114B1B6813F0B10F91D101F0E4FB0B
:10AF080000287FF47BAF124B1870124801F0EEFA5C
:10AF180000F024F872E70E4B0F481D7001F0E6FAB6
:10AF28006CE74FF4A0247DE7585E00200C00030076
:10AF380024760020345A00201C05004075AD070017
:10AF480089AD0700DBE5B151C57800208478002081
:10AF5800545E002045AD070051AD070008B5074B0A
:10AF68004FF0FF32C3F88020C3F8802101F0BBF80E
:10AF78004FF48050BDE8084000F02EB800E100E032
:10AF8800C1F30B0330B52BBBB0F5FE2F22D8000B55
:10AF9800013900EB113101254FF08042814201D285
:10AFA800002030BD00F01F03440905FA03F3032C09
:10AFB80005D8DFE804F00206090CC2F800360130B3
:10AFC800ECE7C2F80436FAE7C2F81036F7E7C2F839
:10AFD8001436F4E70720E4E730B50546204889B081
:10AFE8000022C0F5FE21FFF7CBFF01F0C1FB1D4B8E
:10AFF8009969002201441046FFF7C2FFEFF305826A
:10B008000023D5E9004183F3148883F3108883F380
:10B01800118883F31388C2F308023AB984F30888C5
:10B028004FF0FF339E46084709B030BD4FF0FF355B
:10B03800203CCDE90033CDE902330493CDE9055135
:10B048004FF08073202269462046079302F0A0FA49
:10B0580084F30888AE466FF006031847E4E700BF9C
:10B06800008007002476002037B56FF07F42154C2A
:10B07800057BD4F804358A4228BF0A46891A134446
:10B088004A1E942A23F07F4305F5A8729BBF963B7E
:10B0980096314160416044F822300B4B4FF4F86020
:10B0A80043F001039847094BAA00134400221A6091
:10B0B8001B680193019B4FF48033AB40C4F8043301
:10B0C80003B030BD00400240A0D907004041024013
:10B0D80018490A7884B0002A29D14FF08043A0206B
:10B0E800D3F81834DB035EBF134B01221A60134AEE
:10B0F8000023136012680392039A114A13601268BE
:10B108000292029A0F4A136012680192019A0E4A3B
:10B1180082F82403102050600C4A0D48C2F8083504
:10B128000123036002201360C2F804030B7004B00B
:10B13800704700BF605E00200800004000410240E8
:10B14800404102404441024000E100E0004002402A
:10B1580008400240284B1A6813B542B127490A68CB
:10B1680001320A6000221A601B680093009B244B7E
:10B178001A68A2B100221A6022481B68027B019358
:10B18800019B4FF4803393401F4AC2F8083341684B
:10B19800044601BB8168D9B9236803B198471B4BA2
:10B1A8001A6832B300221A6016481B68027F01939E
:10B1B800019B4FF480339340134AC2F80833416926
:10B1C800044659B1103002B0BDE81040FFF74CBF3B
:10B1D800FFF74AFFE0E7FFF747FFE0E7816911B1B2
:10B1E8001030FFF741FF23691BB102B0BDE81040E2
:10B1F800184702B010BD00BF044102405C5E002049
:10B2080040410240CC5700200040024044410240E7
:10B2180070B50B4B1C68227B4FF480339340094A6E
:10B228000E46C2F80833054640B1FFF751FF2660C5
:10B2380029462046BDE87040FFF716BF70BD00BF25
:10B24800EC5700200040024070B5074B1C680546CB
:10B258000E46A060FFF73CFF266029462046BDE861
:10B268007040FFF701BF00BFF0570020014B0122DB
:10B278001A707047615E002070B5154DEA6A6E6AF3
:10B28800AC6CAC2A0DD16B6B1C44F61AEB6AAC2B78
:10B298000DD0324621460F4802F044F980B900200B
:10B2A80070BD002CF2D101F079FA0446EEE732467F
:10B2B800A4F58041074802F035F90028E9D1EEE706
:10B2C80000F022F931462046BDE8704000F0ECBE9F
:10B2D80024760020008007002DE9F74F8046894634
:10B2E800A9EB0804240B02F6FF76154600F0E6F8F1
:10B2F800082C28BF08242303DFF860B00193360B1D
:10B308000DB92B4626E0B4422CBFB246A2464FF0F8
:10B318000002514640462CBF2F46019F00F0ACFE6C
:10B328000346B8B9FA1C22F003024946404600F029
:10B3380095FE034670B9DBF83030ED1BB844B944CC
:10B348001F44CBF8307001F0D7F8A6EB0A06034685
:10B358000028D5D0184603B0BDE8F08F2476002029
:10B3680010B501F02BFA154A42F20403916CCC583F
:10B3780003F1A34303F5471303F2D7539C4218D1B3
:10B38800D2E90C32934216D018441944884204D1A9
:10B398000020BDE8104001F0AFB8D21A02F6FF72E3
:10B3A80022F47F6222F00F02FFF796FF0028EFD009
:10B3B80010BD0320FCE70020FAE700BF2476002038
:10B3C80070B5264CE36AA52B36D003D8012B0BD0D9
:10B3D800002030E0AA2B33D0AC2BF9D1FFF7C0FF07
:10B3E80060BBFFF749FF29E0A56C666A01F0C0F968
:10B3F800226B1044A918884229D101F0B9F900221A
:10B408003146FDF7DBF8A36A984202BF0123C4E97D
:10B418000703A6610025124801F09EF9114B124856
:10B4280000221A7001F068F868B975B1236A012B17
:10B4380014BF0120022070BDFFF792FF0125EAE743
:10B44800FFF71AFFE6E70320F5E70120F3E7B21A52
:10B45800FFF742FF0028DDD1CFE700BF24760020A8
:10B4680048760020615E002075B207000A4AD2F8CB
:10B4780000347BB109480023D2F80815D940C90720
:10B4880048BF03F5C07103F1010348BF42F821002A
:10B49800072BF1D1704700BF000001403546526EBE
:10B4A800FFF7E4BF044B002282B01A601B680193C7
:10B4B800019B02B0704700BF0001014038B50E4C37
:10B4C8002278BAB90D4BD3F800248AB1D3F80455C1
:10B4D800FFF7CCFF40F61650A842B8BF28460849E7
:10B4E800A0F54860FFF7B0FE064B4FF480321A60B3
:10B4F8000123237038BD00BF625E002000000140B8
:10B50800A9B4070000E100E0034BD3F800340BB105
:10B51800FFF7ACBF704700BF000001400C4B1B7821
:10B52800062B10D10B4B1B681A070CD10A4B186855
:10B5380000F0F003302B08D000F0E000A0F1400349
:10B54800584258417047002070470120704700BF9B
:10B55800E00F00F0E40F00F0E80F00F0094B1B7853
:10B56800062B0CD1084B1B681A0708D1074B186823
:10B5780000F0F000A0F13003584258417047002015
:10B58800704700BFE00F00F0E40F00F0E80F00F094
:10B5980008B5FFF7C3FF28B17D4B7E4A1B68C3F38C
:10B5A80004231360FFF7DAFF10B17B4B7B4A1A6064
:10B5B800FFF7B4FF28B17A4B7A4A1B68C3F34233CA
:10B5C8001360FFF7CBFF20B1774AD36823F080736D
:10B5D800D360FFF7A3FF40B14FF080430022C3F8C8
:10B5E8000C21C3F81021C3F83825FFF7B7FF10B1B5
:10B5F8006E4B03221A60FFF7B1FF40B16C4B052276
:10B608001A6001229A6700229A603F225A60694BA9
:10B618001B78062B50D1684B1B6819074CD1674B18
:10B628001B6803F0F003502B46D14FF08052644B57
:10B63800D2F80414C3F82015D2F80814C3F8241556
:10B64800D2F80C14C3F82815D2F81014C3F82C1526
:10B65800D2F81414C3F83015D2F81814C3F83415F6
:10B66800D2F81C14C3F84015D2F82014C3F84415B6
:10B67800D2F82414C3F84815D2F82814C3F84C1586
:10B68800D2F82C14C3F85015D2F83014C3F8541556
:10B69800D2F83414C3F86015D2F83814C3F8641516
:10B6A800D2F83C14C3F86815D2F84014C3F86C15E6
:10B6B800D2F84424C3F87025FFF730FF28B1414B76
:10B6C800414A1B6803F04F031360FFF727FF48B197
:10B6D8004FF08043D3F80024D20744BF6FF0010233
:10B6E800C3F80024394B1B68062B08D1384B1B685C
:10B6F800062B01BF374A136843F480631360364A48
:10B70800D2F8883043F47003C2F88830BFF34F8F03
:10B71800BFF36F8F4FF01023D3F80022002A03DB0A
:10B72800D3F80432002B2FDA2C4B0122C3F804255E
:10B73800D3F80024002AFBD04FF010221521C2F8BC
:10B748000012D3F80024002AFBD04FF01023152252
:10B75800C3F80422214B1A46D3F800140029FBD061
:10B768000021C3F80415D2F80034002BFBD0BFF336
:10B778004F8F19491A4BCA6802F4E0621343CB6031
:10B78800BFF34F8F00BFFDE7164B174A1A6008BD7D
:10B79800240300104035014074C007400DF0ADBAD5
:10B7A800440200103C050040F0ED00E0A005004018
:10B7B80010560040E00F00F0E40F00F0E80F00F032
:10B7C80000C0004058020010E40E00403001001094
:10B7D800340100103C17004000ED00E000E001409B
:10B7E8000400FA05F45700200090D00313681F2BBB
:10B7F80010B5144607D900220830FDF755FB08B9E3
:10B808002023236010BD48F21450FBE70830FDF7F1
:10B8180027BB0830FDF7F4BA062810B5044602D154
:10B82800002000F081FF044B1B681BB12046BDE8D7
:10B838001040184710BD00BF645E002008B5074BD4
:10B8480018600020FFF7E8FF054800F055FF20B911
:10B858000348BDE8084000F0D3BD08BD645E002081
:10B8680021B807006CDF70476DDF704772DF7047E3
:10B8780073DF704774DF704775DF704776DF704796
:10B888007ADF70477CDF70477DDF70477FDF704766
:10B8980086DF70478FDF704790DF7047A8DF7047FB
:10B8A800AADF7047ADDF7047AEDF7047B0DF704783
:10B8B800B1DF7047B5DF704762DF704766DF7047FA
:10B8C80013DF70477FB50023CDF80A30ADF80E308E
:10B8D8000A4BADF806109B89ADF8083001238DF8A6
:10B8E8000A300DF10603CDE90430054B02A918888A
:10B8F800FFF7DAFF07B05DF804FB00BFD26E002047
:10B90800FA57002001460148FCF776BFC4D6070065
:10B9180030B518228DB000210DEB020001F061FE58
:10B92800282308931623ADF806300023CDF80E30EF
:10B93800CDF81230ADF816301A4B029302220621C8
:10B9480009251A7099701A71032159220124D97096
:10B958005A710DF10601FE2258198DF818408DF81C
:10B968002D40ADF80C505C709A71FFF78DFFB8B997
:10B97800BDF806201D721119D971BDF80C301A4492
:10B98800094BADF80C2002A906AA1846FFF76EFF6E
:10B9980030B91878FFF76EFF21461878FFF768FF6F
:10B9A8000DB030BDE66E0020F8570020F0B50388D2
:10B9B8001F2B8BB0044600F0C28029D8112B56D01B
:10B9C80006D8012B00F0CC80102B42D00BB0F0BD74
:10B9D800142B00F042811A2B34D0132BF6D10023FC
:10B9E800A14CADF812300223ADF8103004AA02AB16
:10B9F80042F6052120880593FFF754FF08B1FEF7AA
:10BA08009CF900231A4685212088FFF73FFF86E02E
:10BA1800512B00F0AB800ED8232B00F08880502BE0
:10BA280039D0212BD2D10AA9002321F8183D8088CA
:10BA3800FFF730FF73E0552B59D0562B00F0868066
:10BA4800522BC3D100231A461946A088FFF730FFAE
:10BA580065E0854B82881A80844A12681C460AB1C0
:10BA68000120904782492088FFF706FFAEE77E4B0A
:10BA78004FF6FF721A807F4B1B685A0704D4FFF7F2
:10BA880047FF08B1FEF759F9784B1B68002B9DD08A
:10BA9800022098479AE7784EC288B3889A4295D18F
:10BAA8007648FCF786FE054600288FD0228A04F1E6
:10BAB800120101F06DFD1822002104A801F091FD8A
:10BAC80008238DF810306E4B06936E4B0596CDE922
:10BAD800073504A8238AADF8243000F087FC002835
:10BAE8003FF474AF29466548FCF786FE6EE7C188C7
:10BAF800F6291AD8CB1E9B070DD0CB1F9BB2013B52
:10BB08005A4202F0030203F0030301F1FF3158BF68
:10BB18005342C91A89B2544B1888FFF7CBFE002844
:10BB28003FF454AFFEF709F950E7F721F3E7002295
:10BB380004A98088CDE90422FFF7AEFEEFE74A4B5F
:10BB480000F108011888FFF797FEE8E78379002BD2
:10BB58007FF43CAF444B13211888FFF78FFEDEE7D4
:10BB6800414B00211888FFF7A9FED8E78379002BFD
:10BB78003FF42CAF022B7FF429AF3F4900898A8913
:10BB880090420E467FF422AFA27B012A7FF41EAFBB
:10BB980000220120CDE904228DF81600208AADF894
:10BBA8001800314D608AADF81A0004F114008DF8C0
:10BBB80010300790ADF80A20ADF80830098A2888B7
:10BBC80001AB02AA0393FFF76DFE2F4660B9184632
:10BBD800FFF7AEF840B940F2FD1304A92888ADF884
:10BBE8001430FFF763FEF1E6002304A93888ADF8A6
:10BBF8001430FFF75BFE014600287FF4E7AE1822F9
:10BC080004A801F0EEFC237D1D4A8DF81030022BAC
:10BC18000596069218D0062B10D0012B10D11A4B7E
:10BC28001A881A4B1A80637DD4F816200893012BC2
:10BC3800099205D1164800F077FD01E0637D08936D
:10BC480004A800F0D3FBC1E6A27D637D43EA02238A
:10BC58000D4A13800D4A1380F2E700231A4619464D
:10BC68008088FFF715FE5AE7FA5700200C6F00206E
:10BC780096DB0700086F0020D26E0020C4D60700AC
:10BC880005BD07000DB90700106F0020126F0020D6
:10BC9800B0D6070014490A6838B512F0010321D05C
:10BCA800124B98421ED0124B18884FF6FF739842D9
:10BCB80013D042F004020A601321FFF7DFFD90B9A8
:10BCC8000C4DC82445F001054FF47A40A847013CC3
:10BCD800FAD1BDE8384001F0F7BA074B1878FFF7FA
:10BCE800C9FDF6E7002038BD086F0020B0D6070070
:10BCF800FA57002090DB0700F857002010B50446DB
:10BD080086B01122002101A801F06BFC2378082BD2
:10BD18000BD1374A374913880988013B9BB21380F6
:10BD2800D9B1D3B9032311802370627823788DF8B1
:10BD380005306021012A8DF804108DF806200ED0F8
:10BD48000B2A52D100F0A6F98DF80700002000F068
:10BD58009BF9042101A8FFF7B5FD06B010BD062B1D
:10BD68001DD0082B01D0032B3FD1D4E90123110AA0
:10BD78008DF807208DF80810110C120E8DF80A2086
:10BD88001A0A8DF80B308DF80C201A0C1B0E8DF842
:10BD980009108DF80D208DF80E300B21DAE7E168D7
:10BDA8008DF80710D4E90123080A8DF80800080C5B
:10BDB800090E8DF80A10110A8DF80B208DF80C1059
:10BDC800110C120E8DF80E201A0A8DF80F308DF80E
:10BDD80010201A0C1B0E8DF80D108DF809008DF827
:10BDE80011208DF812300F21B4E70321B2E700BF0C
:10BDF800126F0020106F00202DE9F0434E4B95B0D4
:10BE08004FF6FF7214A91A8080464FF65963012035
:10BE180021F8483D42468DF80A00FFF73FFD0446E9
:10BE2800002840F08580454B04AA03F1100615460A
:10BE380018685968144603C40833B3422246F7D138
:10BE480008F102012846FFF737FD044600286FD1A4
:10BE580001461C220DA801F0C4FB9DF83430ADF852
:10BE6800044043F004038DF834300223ADF80C305D
:10BE780098F802308DF80E304FF00109C4F307230B
:10BE880069F3030369F307138DF80530E3B243EA56
:10BE9800090369F342038DF80630F423CDE90A4417
:10BEA80001ADADF82C3003AE08F1040308AA0DA9C2
:10BEB800B8F800000C94CDE90865FFF7F1FC2746B7
:10BEC8000446A8BB01461C220DA801F08AFB9DF878
:10BED8003430ADF8044043F018038DF8343098F846
:10BEE80002308DF80E30C4F3072369F3030369F3B6
:10BEF80007138DF80530FBB243EA090369F34203DF
:10BF0800DBB243F010038DF806301723CDE90A445D
:10BF180008AAADF82C300DA908F10C03B8F80000F8
:10BF28000C94ADF80C90CDE90865FFF7B9FC044610
:10BF3800204615B0BDE8F083FA57002074DB0700EF
:10BF480030B5334C236813F0010585B05DD1314B12
:10BF580018603148FCF716FC029500F0B6F8002886
:10BF68004CD12E48FFF7ACFC002847D101F070F9FE
:10BF7800002843D102A801F037FA00283ED102A9CF
:10BF8800012001F03BFA002838D102A801F0A0FAFC
:10BF9800002833D100F088FB30B1214800F078FB4D
:10BFA800236843F002032360112302A88DF80430AC
:10BFB800FFF75AFC10BB9DF8093002A801338DF831
:10BFC8000930FFF74FFCC8B923689B0718D51449F7
:10BFD8008869043182B201A8FFF754FC70B911488E
:10BFE800FFF74EFC50B91048FFF706FF30B9FFF7CE
:10BFF8008FFC18B9236843F00103236005B030BDF6
:10C008000A4801F021FB0949E4E70020F6E700BFF0
:10C01800086F00200C6F0020C4D6070000800700BE
:10C02800685E002096DB0700D26E002084DB0700E4
:10C0380043690BB1C0681847704700000449054BB5
:10C048000022904208BF19460348FCF7EEBB00BF28
:10C0580054D7070028D70700B857002007B5009322
:10C0680013460A4601460348FCF7E3FB03B05DF8B4
:10C0780004FB00BFB857002013460A460146014892
:10C08800FCF7DEBBB8570020014B18700B20704737
:10C09800146F0020024B002218781A70704700BFF6
:10C0A800146F002018DF704730B585B005461022A0
:10C0B8000C466846002101F094FAA40868460195E8
:10C0C8000294FFF7EFFF05B030BD1FB5002304A8A9
:10C0D800CDE901330393022340F8103DFFF7E2FF57
:10C0E80005B05DF804FB4FF000534FF480521A601E
:10C0F80000207047014B06201B681847206F00205E
:10C108000A2803D90B38C0B2FFF7BEBF704700003A
:10C1180010B5044686B00020FCF79AFB014630B102
:10C12800164A18212046FCF777F906B010BD1822E8
:10C13800684601F056FA04238DF80030104B196D4B
:10C14800104B1B68994211D10F4B186800F044FF3F
:10C158008DF80100FFF7D4FFD4E901138DF8010031
:10C1680068469847094800F0C7F9DEE701238DF8CB
:10C1780001306846D4E901139847D6E719C107008A
:10C1880024760020186F00201C6F0020FDC00700D7
:10C19800F0B5044687B0162200210DF1020001F027
:10C1A80020FA23788DF8003001220C2B8DF801201D
:10C1B80000F210819A4012F4AD7F15D1510706D4D0
:10C1C800D30440F10781844B07201B689847D4E9C2
:10C1D8000113684698479DF80130012B00F0EF8065
:10C1E8007D4B05201B68E9E0062B7C4A01D0012B1A
:10C1F80001D1216911701178012904D0022954D084
:10C208000023137096E0013B072BE0D801A252F8F7
:10C2180023F000BF3DC20700D7C10700A7C207002F
:10C228007BC20700D7C10700A1C20700D7C107001A
:10C2380055C20700684B03201B689847606900F0E7
:10C24800D1FCFFF75DFF8DF80100C0E7A18A2069E6
:10C2580000F0E0FCFFF754FF614B8DF80100DA6B4A
:10C268001B6C0293E3680192002BB0D020699847B9
:10C27800ADE75C495C4800F01BFDFFF741FF012872
:10C288008DF80100A3D1002000F036F900289ED0D7
:10C298000A238DF801309AE74FF400730393504B4B
:10C2A800DA6B1B6C0192029391E7013B072B8ED846
:10C2B80001A252F823F000BFE1C20700D7C107006E
:10C2C80097C30700A1C30700D7C10700CBC3070066
:10C2D800D7C1070041C3070000F0BCFC08B9082318
:10C2E800D7E762690AB90323D3E7C2F30B0333B173
:10C2F8003B4B3C495B6D096813448B42F3D1B2F563
:10C30800805F01D90423C4E7354B3649586D096865
:10C3180015188D42E3D85A64DA6C9A641865186364
:10C32800314B1B68002201211844FFF7A5FE0028A5
:10C338003FF44DAF0523ACE700F08CFC0028CED0CD
:10C34800274DA18AD5E914329B1A6A6C0B44934293
:10C35800C9D8254B2E6B1B68206905F148021E447D
:10C36800FCF72CF9E368A28A216907463046FFF7F3
:10C3780075FE08B1E36879E7A38A2A6BAF641A44AB
:10C388002A632A6D029713442B6501931FE7144B08
:10C398009A6C02921B6DF8E7114BD3E91402596CA1
:10C3A800821A8A429BD19A6C5865002120465964AA
:10C3B800DA64FFF7ADFE084B1B680420984707B006
:10C3C800F0BD074B9A6C1B6D01934FF4805302929A
:10C3D8000393FCE602235CE7206F0020FC57002053
:10C3E80024760020186F00201C6F002083681BB182
:10C3F800024A1821FCF710B80720704799C10700B6
:10C4080038B50546C0B10120FFF718FE044648B903
:10C4180000F0D6FB00F01EFC30B9084B00201D6070
:10C42800FFF732FE204638BD0549064800F040FCBB
:10C438000128F2D00324F5E70724F3E7206F002052
:10C44800186F00201C6F00202DE9F04115464FF4AD
:10C458006072064688461F4601F064F818B905B1AF
:10C46800A847002006E0002201213046FFF704FE1D
:10C4780010B10320BDE8F0814FF4607241463846A0
:10C4880001F086F82B464FF4607239463046FFF7C4
:10C49800E5FD0028E5D0ECE770B50C4C0546002218
:10C4A8005821201DFCF78AF800222060C32104F5DA
:10C4B8001870FCF783F82A46C4F85C022146044B3E
:10C4C8000448BDE87040FFF7BFBF00BF24760020D6
:10C4D800246F002000F0070002460248024B006863
:10C4E800FFF7B2BF00580020A47200200149FFF7EF
:10C4F800F3BF00BF00F0070038B505460020FFF77E
:10C50800CBFF044618B903492846FFF7E5FF204644
:10C5180038BD00BF24760020F8B5FFF78FFD02462E
:10C5280008B10320F8BD434C2368013339D05821A2
:10C53800201DFCF743F82468211A4C424C413E4F19
:10C548003E4E3D682B68013360D000225821281DDB
:10C55800FCF734F82B6883425CD16B68012B60D000
:10C56800002205F51870C321FCF728F8D5F85C32CD
:10C578001A1A55425541B4B14FF460722D492F48EB
:10C5880001F006F8F5B139682D485422043100F05D
:10C59800FFFF39682B484FF432725C3100F0F8FF26
:10C5A80010E00446CBE7834204D14FF46072396847
:10C5B8002248F3E74FF460720021204801F011F897
:10C5C800022373607468012C1AD11F49402201F5B7
:10C5D800E47000F0DDFF1D491C2201F5E47000F055
:10C5E800D7FF1B4986F8A1420023042201F28620C6
:10C5F80086F8603286F8E23200F0CAFF02237360E0
:10C608000020FFF779FF00288CD08AE7002CD1D0D2
:10C618000025B1E7002CCDD04FF4607205493046B3
:10C62800BCE7002CC1D04FF460720249304600F0DC
:10C63800AFFFA8E700F0070000580020247600208C
:10C64800287600208076002080770020C0770020A0
:10C658004076002029DF704738B50C4D0446D5F8E0
:10C66800643378B101330FD1002218210430FBF76D
:10C67800A5FF21462060072205F55970BDE838401E
:10C68800FFF7E8BF0E2038BD0820FCE700F00700E0
:10C6980008B528B11C22034900F07AFF002008BD24
:10C6A8000E20FCE764F3070010B5064C00221821A1
:10C6B8002046FBF783FF54F8043C1B1A58425841A4
:10C6C80010BD00BF68F3070008B50A4BD3F8242350
:10C6D800013203D1D3F86433013309D04FF4FE207B
:10C6E800FDF7AAF9C92203494FF4FE20FDF7BCF96A
:10C6F800002008BD24760020F8B5094E094CA41B7B
:10C708000746E4080025A54201D10020F8BD56F8E7
:10C718003530384698470028F8D10135F3E700BF8F
:10C72800B0D60700B8D60700F8B5094E094CA41BC7
:10C738000746E4080025A54201D10020F8BD06EB14
:10C74800C50338465B6898470028F7D10135F2E7FA
:10C75800B0D60700B8D6070008B50C22002100F0B3
:10C7680040FF024B00221A6308BD00BF2476002058
:10C7780043F204031A68084B9A4201BF43F20803C4
:10C78800186800F6FF7020F47F600CBF20F00F00DF
:10C798004FF48050704700BFDBE5B15108B5FFF793
:10C7A800E7FF054B9B69184400F6FF7020F47F6093
:10C7B80020F00F0008BD00BF247600204FF4805001
:10C7C800704700002DE9F84F9846204BDFF884B0F9
:10C7D8001F6ADFF8849005461646002443F2040ACF
:10C7E800012C14D0022C20D0FFF7D8FF6EB17A1E8E
:10C7F80053425341A9EB0000A84200D3D9B1C3B9B1
:10C80800022C1FD00134E4B2EAE73346F2E7FFF71F
:10C81800AFFFB8F1000F06D1DAF80030B3EB0B0325
:10C8280018BF0123E6E72346E4E701234FF48050CD
:10C83800E0E7A84208D314B10548FFF78DFF0020B0
:10C84800BDE8F88FA842F7D20420F9E72476002043
:10C858003C760020DBE5B1510050070090F85520E8
:10C8680012F0FB0F07D190F8643023B1836ECBB17F
:10C878000B600120704712F0010303D090F8563086
:10C8880003B1836D9207F2D590F85C20002AEED0B0
:10C89800054A006EC2F5FC22904201D80344E6E73F
:10C8A800042070470F2070470080070010B5084C1F
:10C8B8004FF40072FF21204600F093FE2022002151
:10C8C800A4F1240000F08DFE002344F82C3C10BD98
:10C8D800807600205B68DA680D4B9A4230B508D143
:10C8E8000C490A6812B90C4A14681CB10B4B002297
:10C8F8001A7030BDD0E90134181913F9015B002D05
:10C90800A0EB0304F9DB0B601460044B0122EFE792
:10C9180050DA0700CC790020C8790020D0790020AF
:10C9280043F2040310B5194A1C68944201462BD0FF
:10C9380042F20403C358981A4342434194421846AA
:10C9480021D142F20403CB58A3421CD14FF44053E7
:10C9580001F500521B781278142B81BF43F214039F
:10C968000B481B68B3FBF0F398BF0023142A89BF58
:10C9780042F2140200208858054A88BFB0FBF2F042
:10C98800181A18BF012010BD0023D7E7DBE5B15105
:10C9980040420F002DE9FF472F49304D8A6B304C3C
:10C9A800304FDFF8D490DFF8D4A06E465C313046C3
:10C9B800FCF7BEFC96E80F0085E80F0000212A4B23
:10C9C80039704FF447722046C9F80010CAF80010B1
:10C9D800EB6000F006FE224624492846FCF747FF94
:10C9E80020B90027384604B0BDE8F0873F78002F0B
:10C9F800F7D094F86C3194F800801BB3B8F1000FAD
:10CA0800EFD194F87231002BEBD0DAF80020D9F886
:10CA180000103046FCF78CFC96E80F0085E80F0004
:10CA28004FF4B272414604F5BA7000F0DAFD04F52D
:10CA3800BA720F492846FCF71AFF0028D1D004F52E
:10CA4800BA7406E0B8F1000FCBD0A379002BC8D098
:10CA58000834084B1C60C5E724760020F07C0020D1
:10CA6800D4790020D0790020DDC8070004DB070056
:10CA780050DA0700AC7D0020CC790020C87900206E
:10CA880000B591B0FDF7DAF8684620220749FDF7AE
:10CA980008F96A46402306490648FDF727F8064B79
:10CAA80001221A7011B05DF804FB00BFA8D8070076
:10CAB800007D002074D80700A4790020F0B5A3B049
:10CAC80006460F4615461C4678222023002104A856
:10CAD800029300F086FD00230393194B1B780BB9D2
:10CAE800FFF7CEFF2FB336BB02AB164E019300966D
:10CAF800289B1549224604A8FDF786F8E8B9402D79
:10CB08001BD1124C2A463946204600F041FD20210F
:10CB18002046FDF7D2F8CDE90045029B0C49324684
:10CB280003A8FCF7FFFF002814BF0520012023B04D
:10CB3800F0BD1320FBE71620F9E70A20F7E700BF4E
:10CB4800A4790020487D0020A8D90700687D00202E
:10CB5800007D0020F0B5ABB004460E4617461D46D2
:10CB68007822202300210CA8039300F03AFD114BF2
:10CB78001B780BB9FFF784FF2DB12146202204A8AA
:10CB8800FDF784F804AC03AB0B4D019300953B46CD
:10CB980032460A490CA8FDF737F848B92022214641
:10CBA800284600F0BFFCB0FA80F040092BB0F0BD79
:10CBB8000020FBE7A4790020A5790020A8D9070068
:10CBC800064B9B6B10B5064C2BB1FFF7E3FE10B17B
:10CBD8000123237010BD0023FBE700BF247600204B
:10CBE800A87D002010B5044658B1B0F5007F0AD8DA
:10CBF800064B00221A70FFF759FE054B01209C6373
:10CC080010BD0320FCE70420FAE700BFA87D002040
:10CC18002476002070B50E4C0646E06BA36B4218D4
:10CC28009A420D4611D85C300A462044314600F03D
:10CC3800AFFCE36B04F140022B4429463046E36322
:10CC4800FBF7BCFC2064012070BD0320FCE700BF9B
:10CC580024760020014B1878704700BFA87D00207B
:10CC680013B5104C94F86C21B2B194F8D802B4F80A
:10CC7800DA2204F5377104F5B8740B4B1B6800937E
:10CC88000A4B1B68FFF71AFF012809D1201D02B0C3
:10CC9800BDE8104000F0A4B9114610460434ECE792
:10CCA80002B010BDD4790020C8790020CC790020CA
:10CCB800204BD3E90E329A422DE9F04107460D4642
:10CCC80033D1DFF8788098F800604EB1FFF766FD41
:10CCD800194B386029461868BDE8F041FFF7BEBD1A
:10CCE800FFF758FE18B3FFF7BBFF01283E60044664
:10CCF8002E6017D1104B29461868FFF7AFFD0128A1
:10CD080004460FD10346324631462868FFF75AFDDC
:10CD180038B9FFF743FD88F8004038602046BDE881
:10CD2800F0810424FFF7C2FDF8E70824F6E705249C
:10CD3800F4E700BF24760020AC7D0020A87D002009
:10CD480001237230FFF706BF037837B50D46114649
:10CD5800032B03D8DFE803F022051019002003B0E5
:10CD680030BDD0F8014000222846FBF727FC84425A
:10CD780014BF00200120F2E70A46002329460130AB
:10CD880003B0BDE83040FFF7E5BE00912B46411CDB
:10CD980040220020FFF792FE0128E9E70120DEE7A4
:10CDA8002DE9F041A2B004460D461746002178222D
:10CDB800984604A8202303939DF8A06000F011FC76
:10CDC80041220021204600F00CFCB5F894300BB14C
:10CDD80095F896602670032E1ED8DFE806F0090243
:10CDE800111F002241463846FBF7E8FBC4F8010052
:10CDF800424639462046FFF7A7FF22B0BDE8F0813A
:10CE080003AB0193631C00933A464346074904A8C1
:10CE1800FCF7FAFE0028EBD00020EEE7B5F89820E2
:10CE280005F19A01601C00F0B3FBE1E7A8D90700FF
:10CE38002DE9F047624B1D68A4B004460F469046A2
:10CE48000A4601462846FFF77BFF002800F0B58018
:10CE580095F8556056BB4FF00109CDF800903B4658
:10CE68002246294613A8FFF79BFF38B90525B8F1D4
:10CE7800000F40F09A80FFF719FD5CE0B8F1000F51
:10CE880056D0412213A94F4800F082FB4E4B6A68E6
:10CE9800C3F82C901E629A60002239462046FBF7A0
:10CEA8008DFB494B0125C3E9097081E0412200212E
:10CEB80002A800F096FB06F001094122002113A800
:10CEC80006F0020600F08DFBB9F1000F37D042F2F0
:10CED8000403E25803F1A34303F5471303F2D753BE
:10CEE8009A42C3D1D5F858A00AF5FF520AF6FF7343
:10CEF800C3F30B031F32D21A42F20803E3589342DA
:10CF0800B4D32046FFF70CFD08B1002EAED00123A4
:10CF1800009322465346294602A8FFF741FF0028FE
:10CF2800A4D0AB6DE218FB1A66B9B8F1000F12D1A4
:10CF3800254B01255D61284624B0BDE8F0873B46B6
:10CF48002246F1E70021009113A82946FFF728FFA0
:10CF58000028EAD18AE7DFF87080B9F1000F20D005
:10CF68002046FFF7DDFC18B108F11800FFF7F4FBC5
:10CF7800412202A9154800F00BFB002E14BFAC2378
:10CF8800A523C8F82C30AB6DC8F83430002E83D0F8
:10CF9800412213A90E4800F0FBFA6B68C8F80C3060
:10CFA8007AE7AA23C8F82C30F0E70A48FFF7D4FB41
:10CFB800FFF77CFC044B9C64BDE7172557E700BFCF
:10CFC800AC7D0020C57800202476002084780020DD
:10CFD80006790020487600200122FFF729BF0000CB
:10CFE80090F85430F0B5002B52D090F85520032A11
:10CFF8004ED890F86E30032B48D1037A002B47D0D7
:10D00800C368342B46D143F20401038A0C682249D1
:10D018008C422AD153B1416989B100F11405DBB2C0
:10D02800002143F20C06CCB2A34201D8122014E02E
:10D03800348855F82170A74204D00131F3E76AB962
:10D04800012BF3D80378E3B1012A4068134B12D8B7
:10D058009B68984234BF10200120F0BD12F1FF33C5
:10D0680018BF0123002BEDD1E0E713B14369002B72
:10D07800DCD10378F6E7DB6898428CBF01201020EA
:10D08800EBE7012A14BF0F200120E6E71420E4E7AC
:10D098000F20E2E71120E0E7DBE5B151247600201C
:10D0A80038B1054B0360054B436001230372002030
:10D0B80070470E20704700BFEFD00700C9D00700A7
:10D0C80069B10B78022B0CD1022804D003280CBFBD
:10D0D80011200820704703230B70002070470E2092
:10D0E80070470820704710B50C4681B10B78042BA7
:10D0F80004D8DFE803F00E05030E0E00112010BD62
:10D10800FFF7AAFA0028FAD102232370F7E70E20C6
:10D11800F5E70820F3E70000F8B5044680691649EA
:10D12800164A10F8025C521A0C230E46B2FBF3F2B0
:10D138003DB92069534300229A4205D10123236057
:10D1480013E04FF0FF30F5E7B758AF4201EB020E9E
:10D1580006EB020C0ED1471C08D1DEF80850D4E9C2
:10D168000223D4E90001A8472060F8BDDCF8047068
:10D178008742F2D00C32DFE7B8D60700C4D60700E2
:10D188001EF0040F0CBFEFF30880EFF30980FFF7E0
:10D19800C3BF00BF10DF704711DF704713B50446E7
:10D1A80009496846FBF77CFD019808B902B010BD33
:10D1B800D0E900312046984718B16846FBF77AFD58
:10D1C800F2E71120F2E700BFA4DB070013B504461D
:10D1D80007496846FBF764FD019B0BB902B010BD17
:10D1E8002046D3E9002190476846FBF763FDF3E743
:10D1F800BCDB0700064B9A6822B11A6822F4800249
:10D208001A607047034B4FF48002C3F880207047C0
:10D218001858002000E100E00B4991F816335A092C
:10D22800EC231341DB0706D5084B9A683AB94FF44B
:10D2380080030B60704742F20200FCF77EBD1A685B
:10D2480042F480021A60704700E100E0185800209C
:10D25800F7B5184F3C785CBB174E01252046357052
:10D26800FFF79CFF112820D02046FFF7AFFF134B94
:10D278001868019002A800F8054DFBF765F91049F8
:10D2880001A8FFF787FF0446B0FA80F0400938701C
:10D298009DF80300FBF77CF93CB90A4B34701C700D
:10D2A800FFF7BAFF2846FFF791FF204603B0F0BD0D
:10D2B8000824FAE7B17D0020B07D00209EDB07003E
:10D2C8003D9D0700B27D0020F7B5154F3B7813B39D
:10D2D800144E01203070FFF761FF11284FF0000550
:10D2E8001BD00220FFF772FF02A800F8015DFBF7D0
:10D2F8002BF9FFF751FF04469DF807003D70FBF737
:10D3080047F92CB93470FFF775FF0320FFF75EFF6C
:10D31800204603B0F0BD0824FAE72C46F8E700BF22
:10D32800B17D0020B07D0020054B1B7833B1054B43
:10D338001B780BB1FFF7C8BFFFF78ABF08207047FB
:10D34800B07D0020B17D0020014B1878704700BFE8
:10D35800B17D002007B508496846FBF7A1FC019B91
:10D3680013B903B05DF804FBD3E900209047684681
:10D37800FBF7A0FCF3E700BFB0DB0700FFF7EABF4D
:10D3880060DF704769DF704761DF704730B5114D66
:10D39800ADF5017D4FF4FA740DF1020103A8ADF863
:10D3A8000240FFF7F1FF70B9294601A8FBF778FCA6
:10D3B800029B002BF0D003A8D3E90021904701A8D5
:10D3C800FBF778FCF4E7052801D0FCF7B6FC0DF56F
:10D3D800017D30BDC8DB0700024B1B780BB1FFF79E
:10D3E800D5BF7047B37D002018B1034B0360002000
:10D3F80070470E20704700BFB8570020F0B50746A9
:10D4080085B00D4600295FD0304B0B600C220021FF
:10D4180001A800F0E6F8012606232A68ADF80830CE
:10D4280001A920208DF804708DF80660FFF7AAFF87
:10D438000C22002101A800F0D4F800242A688DF8F5
:10D44800056001A940208DF806408DF80740FFF7D8
:10D4580099FF0C22214601A800F0C3F8F7232A6897
:10D46800ADF8063001A923208DF80470FFF78AFF74
:10D478000C22214601A800F0B4F82A688DF804604F
:10D4880001A93046FFF77EFF0C22214601A800F0D3
:10D49800A8F84FF4B0632A68019301A9A120FFF707
:10D4A80071FF0C22214601A800F09BF89DF804307A
:10D4B8002A6864F3000301A9A0208DF80430FFF75F
:10D4C80061FF204605B0F0BD0E20FBE7B8570020ED
:10D4D80008B5FFF755FF10B9014B01221A7008BDB6
:10D4E800B37D00204BDF70471FB50D4C01A8FFF737
:10D4F800F9FF70B9214602A8FBF7D2FB039B002B6A
:10D50800F4D00198D3E90021904702A8FBF7D2FB99
:10D51800F4E7052801D0FCF710FC04B010BD00BFEB
:10D52800D4DB070092B370B4134640EA010212F04C
:10D53800030F17D05A1E10D004780B789C420CD1D8
:10D54800431C4C1C024418462146934205D0013323
:10D55800013406780D78AE42F5D000780B78C01A01
:10D5680070BC70470F2BE5D904680A689442E1D172
:10D57800041D0A1D20461146043B042BDAD9043445
:10D58800043206680D68AE42F4D0D3E70020704735
:10D59800844640EA010313F0030F18D18446202A79
:10D5A8000BD32DE9F007B1E8F807A0E8F807A2F1D6
:10D5B8002002202AF7D2BDE8F007042A07D351F841
:10D5C800043B40F8043BA2F10402042AF7D2002AE3
:10D5D80005D011F8013B00F8013B013AF9D160464A
:10D5E80070478446002A2DD010F0030F04D000F8AD
:10D5F800011B013A26D0F7E7C9B241EA012141EA05
:10D608000141202A12D3A2F120022DE9F0030B4692
:10D618000C460D460E460F4688468946A0E8FA0392
:10D62800203AFBD2BDE8F00320320BD0042A05D300
:10D6380040F8041B043A05D0042AF9D200F8011B6B
:10D64800013AFBD16046704700F1010110F0030F69
:10D6580011D010F8012B002A23D010F0030F0AD0A4
:10D6680010F8012B002A1CD010F0030F03D010F87B
:10D67800012B002A15D02DE970004FF001324FF030
:10D68800803350F8044BA4EB020525EA04051D403D
:10D6980000D1F6E7A0F1040070BC10F8012B002AB5
:08D6A800FBD1A0EB010070476B
:08D6B00049BF07009DBC070003
:0CD6B8000000000003000000A9D00700E3
:10D6C400845E0020C06E0020D16E00208C5E00209D
:04D6D400F40000005E
:08D6D800B5B9070000000000D5
:08D6E0000D8A070000000000A4
:08D6E800CD8B070000000000DB
:10D6F000E1D3070000000000F1D4070000000000A3
:08D70000298B07000000000066
:10D70800000000000000000039C007000010000001
:04D718000000080005
:10D71C00001000000400000001000000A5880700B4
:10D72C00C9880700D988070045890700E9880700E0
:10D73C00B1880700B5880700B98807000010000001
:10D74C000400000001000000518A0700318A070024
:10D75C00218A0700598C07000D8C0700F5890700FA
:10D76C00F9890700FD890700982F8A429144377187
:10D77C00CFFBC0B5A5DBB5E95BC25639F111F15948
:10D78C00A4823F92D55E1CAB98AA07D8015B83128A
:10D79C00BE853124C37D0C55745DBE72FEB1DE8036
:10D7AC00A706DC9B74F19BC1C1699BE48647BEEF65
:10D7BC00C69DC10FCCA10C246F2CE92DAA84744AF0
:10D7CC00DCA9B05CDA88F97652513E986DC631A866
:10D7DC00C82703B0C77F59BFF30BE0C64791A7D545
:10D7EC005163CA0667292914850AB72738211B2ECD
:10D7FC00FC6D2C4D130D385354730A65BB0A6A76B5
:10D80C002EC9C281852C7292A1E8BFA24B661AA8C0
:10D81C00708B4BC2A3516CC719E892D1240699D6D0
:10D82C0085350EF470A06A1016C1A419086C371E49
:10D83C004C774827B5BCB034B30C1C394AAAD84E27
:10D84C004FCA9C5BF36F2E68EE828F746F63A57862
:10D85C001478C8840802C78CFAFFBE90EB6C50A4F5
:10D86C00F7A3F9BEF27871C64800280000204000EA
:10D87C004DAA070019940700BB9307000D990700E8
:10D88C007F9907009F990700F5920700B592070052
:10D89C00959807000000000011121314DA25EEA071
:10D8AC008A4DD602D8DCBF15F4C05E87E7D7D37A91
:10D8BC00E77A3D37461D81185040994A674B0D92C7
:10D8CC002AC50BD1D2571E70D25308BD63FB4CD066
:10D8DC007471F465E59B3832A8C00257082000012A
:10D8EC00FFFFFFFFFFFFFFFFFFFFFFFF0000000038
:10D8FC00000000000000000001000000FFFFFFFF1F
:10D90C00512563FCC2CAB9F3849E17A7ADFAE6BCD5
:10D91C00FFFFFFFFFFFFFFFF00000000FFFFFFFF07
:10D92C0096C298D84539A1F4A033EB2D817D0377AD
:10D93C00F240A463E5E6BCF847422CE1F2D1176B48
:10D94C00F551BF376840B6CBCE5E316B5733CE2B1B
:10D95C00169E0F7C4AEBE78E9B7F1AFEE242E34F4A
:10D96C004B60D2273E3CCE3BF6B053CCB0061D6587
:10D97C00BC86987655BDEBB3E7933AAAD835C65A10
:10D98C0017A407006DA50700C9A50700000000003B
:10D99C00000000000338FDD8704700001BB80700DA
:10D9AC0015B80700F5B7070020000000780000004C
:10D9BC000000000001000100000000000100000058
:10D9CC000000000002000500010000004200000001
:10D9DC00000000000000000000000000000000003B
:10D9EC0000000000010011000100FFFF0100000019
:10D9FC0000000000020017000200FEFF640100009E
:10DA0C0050DA0700000000000000000000000000D9
:10DA1C0000000000010001000000000001000000F7
:10DA2C0000000000020005000100000022000000C0
:10DA3C0000000000000000000000000000000000DA
:10DA4C0000000000010011000400FCFF04000000B5
:10DA5C0000000000020011000400FCFF04000000A4
:10DA6C0000000000030021000400FCFF0400100073
:10DA7C0000000000040011000100FFFF0100000085
:10DA8C0000000000050011000200FEFF0400000071
:10DA9C0000000000060011000400FCFF0400000060
:10DAAC0000000000070011000400FCFF040000004F
